:020000040800F2
:1000000000500020F91C00081D1C0008231C0008DB
:10001000291C00082F1C0008351C000800000000E7
:100020000000000000000000000000003B1C000871
:10003000471C000800000000531C00085F1C00085B
:10004000411D0008411D0008411D0008411D000818
:10005000411D0008411D0008411D0008411D000808
:10006000411D0008411D0008411D0008411D0008F8
:10007000411D0008411D0008411D0008411D0008E8
:10008000411D0008411D0008411D0008411D0008D8
:10009000411D0008411D0008411D0008411D0008C8
:1000A000411D0008411D0008411D0008411D0008B8
:1000B000411D0008411D0008411D0008411D0008A8
:1000C000411D0008411D0008411D0008411D000898
:1000D000411D00086D1C0008411D0008411D00085D
:1000E000411D0008411D0008411D000800000000DE
:1000F0000000000000000000000000000000000000
:0C01000000000000000000005FF808F1A3
:1001100010B5054C237833B9044B13B10448AFF341
:1001200000800123237010BD680000200000000043
:10013000785A000808B5034B1BB103490348AFF3D5
:10014000008008BD000000006C000020785A000804
:1001500053B94AB9002908BF00281CBF4FF0FF312E
:100160004FF0FF3000F072B9ADF1080C6DE904CE2C
:1001700000F006F8DDF804E0DDE9022304B0704782
:100180002DE9F047089E0D4604468E46002B4CD1C3
:100190008A42944667D9B2FA82F353B102FA03FC59
:1001A000C3F1200201FA03FE20FA02F242EA0E0E27
:1001B0009C404FEA1C47BEFBF7F11FFA8CF507FB8A
:1001C00011EE01FB05F0220C42EA0E4290420AD9E0
:1001D0001CEB020201F1FF3E80F01981904240F2D7
:1001E000168102396244121AB2FBF7F007FB1022A3
:1001F00000FB05F5A4B244EA0244A5420AD91CEB6F
:10020000040400F1FF3280F00481A54240F2018134
:100210006444023840EA01400021641B1EB1DC4006
:100220000023C6E90043BDE8F0878B4208D9002EC1
:1002300000F0EA800021C6E900050846BDE8F08725
:10024000B3FA83F1002948D1AB4202D3824200F2D3
:10025000F880841A65EB030201209646002EE2D056
:10026000C6E9004EDFE702B9FFDEB2FA82F3002BE7
:1002700040F08E80881A0121170C1FFA82FEB0FB15
:10028000F7F507FB1500220C42EA00420EFB05F0D1
:10029000904208D91CEB020205F1FF3802D29042CD
:1002A00000F2CC804546121AB2FBF7F007FB102291
:1002B0000EFB00FEA4B244EA0244A64508D91CEB9A
:1002C000040400F1FF3202D2A64500F2B4801046C9
:1002D000A4EB0E0440EA0540A0E7C1F120078B40E3
:1002E00022FA07FC4CEA030C25FA07FA4FEA1C49EC
:1002F000BAFBF9F88D4020FA07F309FB18AA1FFA98
:100300008CFE2B4300FA01F508FB0EF01C0C44EAAE
:100310000A44A04202FA01F20BD91CEB040408F1D2
:10032000FF3A80F08680A04240F28380A8F1020864
:100330006444241A98B2B4FBF9F309FB134403FB99
:100340000EFE40EA0444A64508D91CEB040403F160
:10035000FF306AD2A64568D9023B644443EA0840AC
:10036000A0FB0293A4EB0E049C42C8469E4654D3C5
:1003700051D0002E67D0B5EB080364EB0E04CB40E0
:1003800004FA07F71F43CC40C6E9007400214AE78E
:1003900002FA03FCC3F12000C1409D4024FA00F0A2
:1003A0004FEA1C472843B1FBF7F507FB15111FFA6D
:1003B0008CFE020C42EA014205FB0EF1914204FA66
:1003C00003F408D91CEB020205F1FF382FD2914249
:1003D0002DD9023D6244521AB2FBF7F107FB1122FC
:1003E00080B240EA024001FB0EF2824208D91CEBC7
:1003F000000001F1FF3816D2824214D9023960445C
:10040000801A41EA05413AE7314630460BE771462A
:10041000E9E61046FEE64D45ABD2B9EB020863EBC8
:100420000C0E0138A5E74146EAE7034696E7454644
:10043000D1E7D0467DE76444023849E7023D624493
:1004400031E708460AE73146EDE600BF704700BFD6
:1004500080B584B000AF78600B46FB707B681B688A
:10046000FA781146184600F0D0FB7B681B681846E6
:1004700000F0EBFB0346FB737B681B680121184609
:1004800000F088FBFB7B18461037BD4680BD80B569
:1004900082B000AF78600B46FB701346BB707B6880
:1004A0001B680021184600F075FB7B681A68FB7812
:1004B00063F07F03DBB21946104600F0A6FB7B68B1
:1004C0001B68BA781146184600F09FFB7B681B68D2
:1004D0000121184600F05EFB00BF0837BD4680BD15
:1004E00090B587B000AFF8607A601A460B46FB7291
:1004F0001346BB72BB7A012B27D9FB681B6800210E
:10050000184600F047FBFB681B68FA7A114618464C
:1005100000F07BFB0023FB750CE0FB681968FB7D9A
:100520007A68D418084600F090FB03462370FB7DE0
:100530000133FB75FA7DBB7A9A42EED3FB681B68E8
:100540000121184600F026FB00E000BF1C37BD4625
:1005500090BD80B586B000AFF8607A601A460B4651
:10056000FB721346BB72BB7A012B29D9FB681B684F
:100570000021184600F00EFBFB681A68FB7A63F056
:100580007F03DBB21946104600F03FFB0023FB75EA
:100590000BE0FB681868FB7D7A6813441B781946EA
:1005A00000F033FBFB7D0133FB75FA7DBB7A9A4289
:1005B000EFD3FB681B680121184600F0EBFA00E05E
:1005C00000BF1837BD4680BD80B586B000AF7860EB
:1005D000786800F00DF90F2000F05DFB786800F0FE
:1005E00017F97B68D3E902234FF000004FF00001B8
:1005F000D90441EA5231D0046F4A4FF00003FFF7AB
:10060000A7FD02460B46C7E90423D7E904014FF0D2
:1006100000024FF00003020C42EA01420B0CD3B27D
:100620003B73D7E904014FF000024FF00003020AC8
:1006300042EA01620B0AD3B27B733B7CBB7307F1C6
:100640000C02032306217868FFF783FF3422392147
:100650007868FFF71CFF7B681B7C1A46574B9B5C36
:100660001A4609217868FFF712FF0B220B217868E0
:10067000FFF70DFF23220C217868FFF708FF7B6846
:100680005B7C1A464E4B9B5C062B47D17B689B7C60
:100690001A464C4B9B5C1B01DAB27B68DB7C19462B
:1006A000494B5B5C5B00DBB21344DBB20133DBB272
:1006B0001A461D217868FFF7EAFE7B685B7C1A46C4
:1006C0003F4B9B5C1B01DAB27B681B7D19463F4B9D
:1006D0005B5C9B00DBB21344DBB20333DBB21A4634
:1006E0001E217868FFF7D3FE31217868FFF7B0FE4E
:1006F0000346FB73FB7B23F00703FB73FB7B43F099
:100700000503FB73FB7B1A4631217868FFF7BFFEB8
:100710000C2237217868FFF7BAFE29E07B689B7CC2
:100720001A46284B9B5C1B01DAB27B68DB7C1946BE
:10073000254B5B5C5B00DBB21344DBB21A461D2128
:100740007868FFF7A4FE7B685B7C1A461C4B9B5CB9
:100750001B01DAB27B681B7D19461C4B5B5C9B005E
:10076000DBB21344DBB21A461E217868FFF78FFE16
:10077000042226217868FFF78AFE08221F21786864
:10078000FFF785FE002220217868FFF780FE08220F
:1007900021217868FFF77BFE012241217868FFF76D
:1007A00076FE7B68002283F81721786800F010F845
:1007B00000BF1837BD4680BD0048E801DC5A00087C
:1007C000E05A0008E85A0008F45A0008F85A0008ED
:1007D00080B582B000AF7860092201217868FFF708
:1007E00056FE7B6801229A7500BF0837BD4680BD62
:1007F00080B582B000AF7860082201217868FFF7E9
:1008000046FE7B6800229A7500BF0837BD4680BD52
:1008100080B582B000AF7860882201217868FFF748
:1008200036FE00BF0837BD4680BD80B582B000AF40
:100830007860FF2212217868FFF729FE00BF083791
:10084000BD4680BD80B586B000AFF8600B467A60CB
:10085000FB72FB68FA7A5A75F868FFF7B5FE8422D6
:100860004D21F868FFF713FEFF222421F868FFF7F7
:100870000EFE01224021F868FFF709FE3F221121F8
:10088000F868FFF704FEF868FFF7CFFFFB7A1A4617
:100890002221F868FFF7FBFD0F21F868FFF7D8FD6C
:1008A0000346FB75FB7D1A460D21F868FFF7EFFD47
:1008B0008D220121F868FFF7EAFDFB68002283F82A
:1008C00017211821F868FFF7C3FD034603F004035E
:1008D000042B04D1FB6803229A75012313E07B6883
:1008E000013B7B607B68002B09D1FB681B681846C5
:1008F00000F067F9F868FFF767FE002303E00120C6
:1009000000F0C9F9DDE718461837BD4680BD80B54F
:1009100084B000AF78607B681B68184600F0C6F9A9
:100920000346002B30D07B6817334FF480720021D0
:10093000184604F00FFC10217868FFF789FD034684
:10094000BB73BB7B1A460D217868FFF7A0FD7B685F
:100950005B7C002B03D17B685B7DFB7305E013217F
:100960007868FFF775FD0346FB737B6803F1170298
:10097000FB7B00217868FFF7B3FD7B68FA7B83F887
:1009800017217868FFF751FF7B6893F817311846F5
:100990001037BD4680BD80B586B000AFF8600B460D
:1009A0007A60FB72FB68FA7A5A75F868FFF70CFEFA
:1009B00087224D21F868FFF76AFD00222421F8689C
:1009C000FFF765FD41224021F868FFF760FDF868F8
:1009D000FFF72BFFF7221121F868FFF758FDFB7A8C
:1009E0001A462221F868FFF752FD0E21F868FFF73A
:1009F0002FFD0346FB75FB7D1A460D21F868FFF7B6
:100A000046FD2221F868FFF723FD0346BB75BA7D3A
:100A1000FB7A9A4204D1FB6802229A7501230EE008
:100A20007B68013B7B607B68002BEAD1FB681B681D
:100A3000184600F0C6F8F868FFF7C6FD0023184610
:100A40001837BD4680BD80B584B000AFF860B9608E
:100A50003B601346FB71FB79BA680021F868FFF729
:100A600078FD8B220121F868FFF711FDFB681B68F8
:100A7000184600F01BF90346002B0BD01221F86832
:100A8000FFF7E6FCF868FFF7D0FEF868FFF7A0FE76
:100A9000012313E03B68013B3B603B68002B09D11D
:100AA000FB681B68184600F08CF8F868FFF78CFDAF
:100AB000002303E0012000F0EEF8D7E718461037D6
:100AC000BD4680BD80B584B000AFF860C7E90023A3
:100AD000FB681B68184600F048F8F968D7E900235E
:100AE000C1E90223FB683A7E1A74FB683A7F5A74A4
:100AF000FB6897F820209A74FB6897F82420DA7432
:100B0000FB6897F828201A75FB6897F82C205A750F
:100B1000F868FFF759FD00BF1037BD4680BD80B5AE
:100B200084B000AFF860B9601346FB71FB6893F8BE
:100B30001731FA799A4203D0FB6893F81731FB71A9
:100B4000FB681733FA791946B86804F037FBFB796C
:100B5000BA68134400221A70FB68002283F8172138
:100B6000FB7918461037BD4680BD80B582B000AF16
:100B700078600121786800F00DF87B6858687B6820
:100B80001B689BB20122194601F0BDFC00BF08376B
:100B9000BD4680BD80B582B000AF786039607B68AB
:100BA00058697B681B6999B23B68012B0CBF012314
:100BB0000023DBB21A4601F0A6FC00BF0837BD4691
:100BC00080BD80B582B000AF786001217868FFF702
:100BD000E1FF7B6858687B681B689BB2002219465E
:100BE00001F091FC012000F056F87B6858687B68A2
:100BF0001B689BB20122194601F085FC642000F0BD
:100C00004AF800BF0837BD4680BD80B582B000AF4E
:100C100078600B46FB7000217868FFF7BBFF7B68AC
:100C20009869F91C4FF47A73012202F0E3FE00BFC9
:100C30007B689B69184603F0D0F90346012BF7D176
:100C400000BF00BF0837BD4680BD80B586B002AF8B
:100C500078600023FB730023BB7300217868FFF7E3
:100C600099FF7B68986907F10E0207F10F014FF4B5
:100C70007A730093012303F000F800BF7B689B693F
:100C8000184603F0AAF90346012BF7D1BB7B18469F
:100C90001037BD4680BD80B582B000AF78607868FF
:100CA00001F0B2F800BF0837BD4680BD80B582B004
:100CB00000AF78607B68DA687B689B689BB21946F6
:100CC000104601F009FC0346012B0CBF0123002351
:100CD000DBB218460837BD4680BD000000000000AA
:100CE00080B586B006AF01F02DF800F0DDF900F018
:100CF000FFFA00F083FA00F04BFA00F01BFA00F064
:100D0000CDFAA54803F06CFA00F0A0FBA34BA44A6F
:100D1000DA60A24B02229A60A04BA24A5A619F4B12
:100D200010221A619D4B9E4A5A609C4B01221A6008
:100D30009A4B9D4A9A619D4B984A1A600A230593E3
:100D400000230493002303930723029301230193B9
:100D5000012300938EA3D3E900239448FFF7B2FE4A
:100D6000934B1B68012B0FD14FF4FA6210218F486F
:100D7000FFF711FE03468F4A136000224FF4005123
:100D80008D4801F0C0FB0EE04FF4FA621021874855
:100D9000FFF758FD0346874A136001224FF40051C4
:100DA000854801F0B0FB854B1B88DAB2844B1A7082
:100DB000824B1B881B0A9BB2DAB2814B5A70814B63
:100DC0001A787F4B9A70804B1B88DAB27C4BDA70B2
:100DD0007D4B1B881B0A9BB2DAB2794B1A717B4B95
:100DE0001A78774B5A717A4B1A78754B9A71794BFE
:100DF0001A78734BDA716E4B1B68012B2FD14FF4AD
:100E00007A7001F001F84FF4FA6210216748FFF799
:100E1000C2FD0346674A13604FF4FA631022684923
:100E20006248FFF710FE0346624A1360614B1B687D
:100E3000002BB8D000224FF400515F4801F063FB53
:100E40004FF4FA7000F0E0FF01224FF400515A48CD
:100E500001F059FB4FF4FA7000F0D6FFA3E74FF40E
:100E60007A7000F0D1FF5148FFF751FD03461A4652
:100E7000504B1A604F4B1B68002B94DD4D4B1B6889
:100E8000DBB21A464E494948FFF749FE0346002B9C
:100E900089D04B4B5B781B021AB2494B1B781BB2B3
:100EA00013431BB29AB2454B1A800021002000F078
:100EB00035FC424B1B881A464749484804F02AF93A
:100EC00001224749454800F0BFFC3D4B1B791B02FE
:100ED0001AB23B4BDB781BB213431BB29AB23A4BAC
:100EE0001A800A21002000F019FC374B1B881A4693
:100EF0003C493A4804F00EF901223949374800F0DC
:100F0000A3FC2821002000F009FC324B1B781A4674
:100F10003549324804F0FEF8012231492F4800F0EB
:100F200093FC3221002000F0F9FB294B1B781A4674
:100F30002E492A4804F0EEF801222949274800F0FA
:100F400083FC00F047FB1E4B5B79002B52D1012242
:100F50004FF48071134801F0D6FA4FF47A7000F024
:100F600053FF00224FF480710E4801F0CCFA0A20A2
:100F700000F04AFF1421002000F0D0FB01221849A4
:100F80001B4800F061FC00F025FB3EE0AFF3008061
:100F90008050DE190000000030010020C001002058
:100FA000000C014000080140D8000020E0010020B2
:100FB000F8020020FC020020001001402203002063
:100FC0000003002026030020240300202703002024
:100FD0002003002021030020905A00081003002065
:100FE00000000020A05A0008B05A0008BC5A0008AF
:100FF000C85A00081421002000F090FB0122244967
:10100000244800F021FC00F0E5FA234B9B78002BEC
:101010001ED101224FF48071204801F074FA4FF480
:101020007A7000F0F1FE00224FF480711B4801F04D
:101030006AFA0A2000F0E8FE1E21002000F06EFB94
:1010400001221349164800F0FFFB00F0C3FA0AE042
:101050001E21002000F062FB01220D490D4800F026
:10106000F3FB00F0B7FA00224FF400510D4801F0F5
:101070004AFA4FF4FA7000F0C7FE01224FF4005113
:10108000084801F040FA4FF4FA7000F0BDFE8AE61D
:1010900000000020CC5A0008000300200008014096
:1010A000D45A00080010014080B590B000AF07F19D
:1010B000180328220021184604F04CF83B1D00229A
:1010C0001A605A609A60DA601A610123BB614FF4BA
:1010D0008033FB6100233B620123BB6202237B63FD
:1010E0004FF48033BB634FF4E013FB6307F1180345
:1010F000184601F0EBFF0346002B01D000F0A0F9E9
:101100000F237B600223BB600023FB604FF48063EE
:101110003B6100237B613B1D0221184602F058FA17
:101120000346002B01D000F08BF900BF4037BD46CD
:1011300080BD000080B500AF124B134A1A60114BFE
:10114000124A5A600F4B00229A600E4B0022DA605E
:101150000C4B4FF480421A610A4B00225A61094B32
:1011600000229A61074B0022DA61064B00221A62C4
:10117000044801F0E1F90346002B01D000F060F9CA
:1011800000BF80BD8400002000540040801A06008B
:1011900080B500AF174B184A1A60164B4FF4827295
:1011A0005A60144B00229A60124B0022DA60114BF5
:1011B00000221A610F4B00225A610E4B4FF400724D
:1011C0009A610C4B1022DA610A4B00221A62094B19
:1011D00000225A62074B00229A62064B0A22DA6208
:1011E000044802F083FB0346002B01D000F028F9ED
:1011F00000BF80BDD80000200030014080B586B01F
:1012000000AF07F1080300221A605A609A60DA60A2
:101210003B4600221A605A601E4B1F4A1A601D4B43
:1012200047225A601B4B00229A601A4B4FF6FE72FF
:10123000DA60184B00221A61164B00225A61154BD6
:1012400000229A61134802F07BFF0346002B01D075
:1012500000F0F6F84FF48053BB6007F1080319461D
:101260000C4803F007F80346002B01D000F0E8F823
:1012700000233B6000237B603B461946054803F092
:10128000B9F90346002B01D000F0DAF800BF183797
:10129000BD4680BD30010020002C014080B500AF6C
:1012A000114B124A1A60104B4FF4E1325A600E4B48
:1012B00000229A600C4B0022DA600B4B00221A616C
:1012C000094B0C225A61084B00229A61064B0022FE
:1012D000DA61054803F0ECF90346002B01D000F079
:1012E000AFF800BF80BD00BF78010020003801408A
:1012F00080B588B000AF07F1100300221A605A6071
:101300009A60DA604A4B9B69494A43F01003936143
:10131000474B9B6903F01003FB60FB68444B9B69E0
:10132000434A43F020039361414B9B6903F0200340
:10133000BB60BB683E4B9B693D4A43F0040393612D
:101340003B4B9B6903F004037B607B68384B9B69D4
:10135000374A43F008039361354B9B6903F0080358
:101360003B603B6800224FF40051324801F0CBF85B
:1013700000220221304801F0C6F8012210212E4837
:1013800001F0C1F8012201212C4801F0BCF8002233
:101390004FF48071284801F0B6F84FF400533B61D8
:1013A00001237B610023BB610223FB6107F1100372
:1013B0001946204800F00CFF12233B6101237B619A
:1013C0000023BB610223FB6107F1100319461A4891
:1013D00000F0FEFE01233B6101237B610023BB6122
:1013E0000223FB6107F110031946144800F0F0FED8
:1013F00002233B6100237B610023BB6107F11003E3
:1014000019460E4800F0E4FE4FF480733B6101235F
:101410007B610023BB610223FB6107F110031946C6
:10142000054800F0D5FE00BF2037BD4680BD00BF97
:10143000001002400010014000080140000C014073
:1014400080B400AF72B600BFFEE7000080B582B086
:1014500000AF00F01FFA44F62063012278215B48B8
:1014600001F0ACFA0346002B01D00023A9E040F6BE
:10147000C4137B6002E07B68013B7B607B68002BD0
:10148000F9D1AE220021782000F07EFA202200213E
:10149000782000F079FA10220021782000F074FA08
:1014A000B0220021782000F06FFAC82200217820B5
:1014B00000F06AFA00220021782000F065FA10227C
:1014C0000021782000F060FA40220021782000F00E
:1014D0005BFA81220021782000F056FAFF220021D9
:1014E000782000F051FAA1220021782000F04CFA77
:1014F000A6220021782000F047FAA82200217820B7
:1015000000F042FA3F220021782000F03DFAA422A8
:101510000021782000F038FAD3220021782000F052
:1015200033FA00220021782000F02EFAD522002183
:10153000782000F029FAF0220021782000F024FA27
:10154000D9220021782000F01FFA222200217820E1
:1015500000F01AFADA220021782000F015FA12229F
:101560000021782000F010FADB220021782000F022
:101570000BFA20220021782000F006FA8D220021AB
:10158000782000F001FA14220021782000F0FCF904
:10159000AF220021782000F0F7F92E2200217820D8
:1015A00000F0F2F9002000F043F800F013F8084BC7
:1015B00000221A80064B00225A80054B01225A71E4
:1015C000012318460837BD4680BD00BF84000020B7
:1015D0002807002080B582B000AF0023FB711DE01A
:1015E000FB79503BDBB21A460021782000F0CCF9A1
:1015F00000220021782000F0C7F910220021782075
:1016000000F0C2F9FB79DB01084A1A44802340212B
:10161000782000F053F9FB790133FB71FB79072B3C
:10162000DED900BF00BF0837BD4680BD28030020BB
:1016300080B582B000AF0346FB71FB79002B01D16E
:10164000002300E0FF234FF480621946034803F0B3
:1016500081FD00BF0837BD4680BD00BF28030020C4
:1016600080B483B000AF0346FB800B46BB801346BB
:10167000FB70FB887F2B48D8BB883F2B45D8254B78
:101680001B79002B06D0FB78002B0CBF0123002315
:10169000DBB2FB70FB78012B1AD1FA88BB88DB0820
:1016A00098B20346DB0113441B4AD35C5AB2BB8891
:1016B00003F00703012101FA03F35BB2134359B2AC
:1016C000FA880346DB011344C9B2134AD1541DE022
:1016D000FA88BB88DB0898B20346DB0113440E4A44
:1016E000D35C5AB2BB8803F00703012101FA03F36C
:1016F0005BB2DB435BB2134059B2FA880346DB01AD
:101700001344C9B2044AD15400E000BF0C37BD46AF
:1017100080BC7047280700202803002080B483B0D5
:1017200000AF03460A46FB801346BB80054AFB8890
:101730001380044ABB88538000BF0C37BD4680BC71
:10174000704700BF2807002080B586B000AF034671
:101750003960FB711346BB713A4B1B881A463B68D4
:101760001B7813447F2B07DC364B5B881A463B689B
:101770005B7813443F2B01DD00235EE000237B6197
:101780004BE03B685A68FB79203B3968497801FB9C
:1017900003F319467B690B445B0013441B88FB6011
:1017A00000233B6130E0FA683B6902FA03F303F47B
:1017B0000043002B10D0234B1A883B699BB2134483
:1017C00098B2204B5A887B699BB213449BB2BA797A
:1017D0001946FFF745FF14E01A4B1A883B699BB284
:1017E000134498B2174B5A887B699BB2134499B241
:1017F000BB79002B0CBF01230023DBB21A46FFF795
:101800002FFF3B6901333B613B681B781A463B69FC
:101810009342C8D37B6901337B613B685B781A468E
:101820007B699342ADD3074B1A883B681B789BB208
:1018300013449AB2034B1A80FB7918461837BD46F9
:1018400080BD00BF2807002080B584B000AFF860DD
:10185000B9601346FB7112E0FB681B78FA79B9682E
:101860001846FFF771FF03461A46FB681B789A4239
:1018700002D0FB681B7808E0FB680133FB60FB6863
:101880001B78002BE8D1FB681B7818461037BD4643
:1018900080BD000080B483B000AF074B7B6002E0E6
:1018A0007B68013B7B607B68002BF9D100BF00BFE8
:1018B0000C37BD4680BC704790D0030090B5C7B0D0
:1018C00002AF0446084607F58871A1F588710A60E1
:1018D000194607F58873A3F2091322461A7007F513
:1018E0008873A3F5857302461A7007F58873A3F50C
:1018F00086730A461A8007F58873A3F5827307F585
:101900008872A2F5857212781A70002387F80F3159
:1019100015E097F80F3107F58872A2F58872126802
:101920001A4497F80F310133117807F58872A2F540
:101930008272D15497F80F31013387F80F3197F83D
:101940000F319BB207F58872A2F5867212889A420F
:10195000DFD807F58873A3F209131B7899B207F54E
:101960008873A3F586731B8801339BB207F10C02C1
:101970000A200090034800F023FF00BF07F58A7794
:10198000BD4690BD8400002080B586B002AF0346FE
:10199000FB710B46BB7113467B71BB793B737B7943
:1019A0007B73FB7999B207F10C020A23009302239F
:1019B000034800F005FF00BF1037BD4680BD00BFE3
:1019C0008400002080B485B000AF154B9B69144A99
:1019D00043F001039361124B9B6903F00103BB6069
:1019E000BB680F4BDB690E4A43F08053D3610C4B4D
:1019F000DB6903F080537B607B680A4B5B68FB60AC
:101A0000FB6823F0E063FB60FB6843F00073FB605E
:101A1000044AFB68536000BF1437BD4680BC704762
:101A2000001002400000014080B588B000AF78602F
:101A300007F1100300221A605A609A60DA607B682E
:101A40001B68154A934223D1144B9B69134A43F0F8
:101A500008039361114B9B6903F00803FB60FB686B
:101A6000C0233B6112237B610323FB6107F1100359
:101A700019460B4800F0ACFB084BDB69074A43F4FE
:101A80000013D361054BDB6903F40013BB60BB6833
:101A900000BF2037BD4680BD00540040001002400A
:101AA000000C014080B588B000AF786007F11003EA
:101AB00000221A605A609A60DA607B681B681B4AD1
:101AC00093422FD11A4B9B69194A43F48053936177
:101AD000174B9B6903F48053FB60FB68144B9B69B5
:101AE000134A43F004039361114B9B6903F0040311
:101AF000BB60BB68A0233B6102237B610323FB61C6
:101B000007F1100319460B4800F062FB40233B61CC
:101B100000237B610023BB6107F1100319460548D0
:101B200000F056FB00BF2037BD4680BD00300140AD
:101B3000001002400008014080B485B000AF78601A
:101B40007B681B68094A93420BD1094B9B69084A81
:101B500043F400639361064B9B6903F40063FB60ED
:101B6000FB6800BF1437BD4680BC7047002C0140A5
:101B70000010024080B588B000AF786007F1100314
:101B800000221A605A609A60DA607B681B68204AFB
:101B9000934239D11F4B9B691E4A43F480439361A2
:101BA0001C4B9B6903F48043FB60FB68194B9B69EA
:101BB000184A43F004039361164B9B6903F0040336
:101BC000BB60BB684FF400733B6102237B6103235E
:101BD000FB6107F1100319460F4800F0F9FA4FF4C2
:101BE00080633B6100237B610023BB6107F110032D
:101BF0001946094800F0ECFA00220021252000F0E7
:101C0000FEF9252000F017FA00BF2037BD4680BD41
:101C100000380140001002400008014080B400AFCD
:101C2000FEE780B400AFFEE780B400AFFEE780B40B
:101C300000AFFEE780B400AFFEE780B400AF00BFA6
:101C4000BD4680BC704780B400AF00BFBD4680BCBD
:101C5000704780B400AF00BFBD4680BC704780B500
:101C600000AF00F0B5F800BF80BD000080B500AF48
:101C7000024802F06DFD00BF80BD00BF780100206A
:101C800080B586B000AF7860144A154BD31A7B61DB
:101C90007B693B61134B1B68002B02D1114B124A2D
:101CA0001A60104B1A687B6813443A699A4207D24B
:101CB00003F058FA03460C221A604FF0FF3309E094
:101CC000084B1B68FB60074B1A687B681344054A86
:101CD0001360FB6818461837BD4680BD00500020D1
:101CE00000040000300700208008002080B400AF0E
:101CF00000BFBD4680BC7047FFF7F8FF0B480C499A
:101D00000C4A002302E0D458C4500433C4188C4257
:101D1000F9D3094A094C002301E013600432A242BE
:101D2000FBD303F025FAFEF7DBFF7047000000202D
:101D300064000020D86200086800002080080020AD
:101D4000FEE7000080B500AF084B1B68074A43F070
:101D500010031360032000F047F90F2000F008F88B
:101D6000FFF730FE0023184680BD00BF0020024070
:101D700080B582B000AF7860124B1A68124B1B78A6
:101D800019464FF47A73B3FBF1F3B2FBF3F3184641
:101D900000F05FF90346002B01D001230EE07B68C1
:101DA0000F2B0AD8002279684FF0FF3000F027F996
:101DB000064A7B681360002300E0012318460837B9
:101DC000BD4680BD08000020100000200C0000204F
:101DD00080B400AF054B1B781A46054B1B681344B3
:101DE000034A136000BFBD4680BC7047100000204E
:101DF0003407002080B400AF024B1B681846BD4674
:101E000080BC70473407002080B584B000AF786094
:101E1000FFF7F0FFB8607B68FB60FB68B3F1FF3F42
:101E200005D00A4B1B781A46FB681344FB6000BFC1
:101E3000FFF7E0FF0246BB68D31AFA689A42F7D868
:101E400000BF00BF1037BD4680BD00BF100000209E
:101E500080B485B000AF78607B6803F00703FB6057
:101E60000C4BDB68BB60BA684FF6FF031340BB60E6
:101E7000FB681A02BB68134343F0BF6343F40033AB
:101E8000BB60044ABB68D36000BF1437BD4680BC4A
:101E9000704700BF00ED00E080B400AF044BDB688A
:101EA0001B0A03F007031846BD4680BC704700BFFD
:101EB00000ED00E080B483B000AF0346FB7197F9FA
:101EC0000730002B0BDBFB7903F01F02064997F963
:101ED00007305B09012000FA02F241F8232000BF1D
:101EE0000C37BD4680BC704700E100E080B483B091
:101EF00000AF03463960FB7197F90730002B0ADB0E
:101F00003B68DAB20C4997F907301201D2B20B44A0
:101F100083F800230AE03B68DAB20849FB7903F052
:101F20000F03043B1201D2B20B441A7600BF0C37E8
:101F3000BD4680BC704700BF00E100E000ED00E05E
:101F400080B489B000AFF860B9607A60FB6803F0D4
:101F50000703FB61FB69C3F10703042B28BF0423BC
:101F6000BB61FB690433062B02D9FB69033B00E02C
:101F700000237B614FF0FF32BB6902FA03F3DA43BF
:101F8000BB681A407B699A404FF0FF317B6901FAC8
:101F900003F3D9437B680B40134318462437BD46EF
:101FA00080BC704780B582B000AF78607B68013B31
:101FB000B3F1807F01D301230FE00A4A7B68013B24
:101FC00053600F214FF0FF30FFF790FF054B0022C9
:101FD0009A60044B07221A60002318460837BD4652
:101FE00080BD00BF10E000E080B582B000AF786037
:101FF0007868FFF72DFF00BF0837BD4680BD80B56C
:1020000086B000AF0346B9607A60FB7300237B6142
:10201000FFF742FF78617A68B9687869FFF790FF47
:10202000024697F90F3011461846FFF75FFF00BFD1
:102030001837BD4680BD80B582B000AF0346FB7146
:1020400097F907301846FFF735FF00BF0837BD4640
:1020500080BD80B582B000AF78607868FFF7A2FFDE
:10206000034618460837BD4680BD80B485B000AF32
:1020700078600023FB737B6893F82130DBB2022B7E
:1020800008D07B6804229A637B68002283F82020B2
:10209000012320E07B681B681A687B681B6822F0BC
:1020A0000E021A607B681B681A687B681B6822F046
:1020B00001021A607B681A6C7B68DB6B012101FAF4
:1020C00002F25A607B68012283F821207B6800229B
:1020D00083F82020FB7B18461437BD4680BC704730
:1020E00080B584B000AF78600023FB737B6893F801
:1020F0002130DBB2022B05D07B6804229A630123D6
:10210000FB7351E07B681B681A687B681B6822F0D0
:102110000E021A607B681B681A687B681B6822F0D5
:1021200001021A607B681B68224A934229D07B68AF
:102130001B68214A934222D07B681B681F4A934246
:102140001AD07B681B681E4A934212D07B681B68BA
:102150001C4A93420AD07B681B681B4A934202D1F7
:102160004FF480130EE04FF080730BE04FF4803398
:1021700008E04FF4805305E04FF4807302E0102331
:1021800000E00123114A53607B68012283F821207B
:102190007B68002283F820207B685B6B002B03D0D8
:1021A0007B685B6B78689847FB7B18461037BD46A9
:1021B00080BD00BF080002401C0002403000024009
:1021C00044000240580002406C00024000000240FF
:1021D00080B48BB000AF7860396000237B6200234D
:1021E0003B6269E101227B6A02FA03F3FB613B680F
:1021F0001B68FA691340BB61BA69FB699A4240F0F7
:1022000058813B685B689A4A93425ED0984A9342F1
:1022100075D8984A934258D0964A93426FD8964AB6
:10222000934252D0944A934269D8944A93424CD0F4
:10223000924A934263D8924A934246D0904A93423C
:102240005DD8122B2AD8122B59D801A252F823F0AC
:10225000CB220008A5220008B7220008F9220008B6
:10226000FF220008FF220008FF220008FF220008CA
:10227000FF220008FF220008FF220008FF220008BA
:10228000FF220008FF220008FF220008FF220008AA
:10229000FF220008AD220008C1220008794A9342BB
:1022A00013D02CE03B68DB683B6229E03B68DB68CD
:1022B00004333B6224E03B68DB6808333B621FE089
:1022C0003B68DB680C333B621AE03B689B68002B81
:1022D00002D104233B6213E03B689B68012B05D1CC
:1022E00008233B627B68FA691A6109E008233B62B4
:1022F0007B68FA695A6103E000233B6200E000BF9B
:10230000BB69FF2B01D87B6801E07B6804337B61EC
:10231000BB69FF2B02D87B6A9B0002E07B6A083B0B
:102320009B003B617B691A680F213B6901FA03F34B
:10233000DB431A40396A3B6901FA03F31A437B69AC
:102340001A603B685B6803F08053002B00F0B1809B
:102350004D4B9B694C4A43F0010393614A4B9B6987
:1023600003F00103BB60BB68484A7B6A9B080233E9
:1023700052F82330FB607B6A03F003039B000F22BB
:1023800002FA03F3DB43FA681340FB607B68404AC0
:10239000934213D07B683F4A93420DD07B683E4AFC
:1023A000934207D07B683D4A934201D1032306E064
:1023B000042304E0022302E0012300E000237A6A00
:1023C00002F0030292009340FA681343FB602F4926
:1023D0007B6A9B080233FA6841F823203B685B68FC
:1023E00003F48013002B06D02D4B9A682C49BB694F
:1023F00013438B6006E02A4B9A68BB69DB4328498C
:1024000013408B603B685B6803F40013002B06D01D
:10241000234BDA682249BB691343CB6006E0204BAB
:10242000DA68BB69DB431E491340CB603B685B68DD
:1024300003F40033002B06D0194B5A681849BB69C6
:1024400013434B6006E0164B5A68BB69DB431449E3
:1024500013404B603B685B6803F48033002B21D052
:102460000F4B1A680E49BB6913430B6021E000BF94
:102470000000321000003110000022100000211076
:102480000000121000001110001002400000014076
:1024900000080140000C0140001001400014014000
:1024A000000401400B4B1A68BB69DB430949134028
:1024B0000B607B6A01337B623B681A687B6A22FA95
:1024C00003F3002B7FF48EAE00BF00BF2C37BD4658
:1024D00080BC70470004014080B485B000AF7860D4
:1024E0000B467B807B689A687B881340002B02D068
:1024F0000123FB7301E00023FB73FB7B18461437B9
:10250000BD4680BC704780B483B000AF78600B4696
:102510007B8013467B707B78002B03D07A887B68A6
:102520001A6103E07B881A047B681A6100BF0C37CC
:10253000BD4680BC7047000080B584B000AF7860B5
:102540007B68002B01D101232BE17B6893F83D30A0
:10255000DBB2002B06D17B68002283F83C20786830
:10256000FFF762FA7B68242283F83D207B681B68B2
:102570001A687B681B6822F001021A607B681B687E
:102580001A687B681B6842F400421A607B681B680B
:102590001A687B681B6822F400421A6001F060F937
:1025A000F8607B685B68814A934207D8FB68804A81
:1025B000934294BF01230023DBB206E0FB687D4A0F
:1025C000934294BF01230023DBB2002B01D00123EF
:1025D000E7E0FB68784AA2FB03239B0CBB607B68A7
:1025E0001B685B6823F03F017B681B68BA680A437D
:1025F0005A607B681B681B6A23F03F017B685B683D
:102600006A4A934202D8BB68013309E0BB684FF4C1
:10261000967202FB03F3694AA2FB03239B09013371
:102620007A6812680B4313627B681B68DB6923F4CA
:102630004F4222F0FF027B685B685C498B4219D8ED
:10264000FB68591E7B685B685B00B1FBF3F3591CA8
:1026500040F6FC730B40002B0AD0FB68591E7B68C8
:102660005B685B00B1FBF3F30133C3F30B0351E091
:1026700004234FE07B689B68002B11D1FB68581E38
:102680007B6859680B465B000B44B0FBF3F30133E6
:10269000C3F30B03002B0CBF01230023DBB212E0BA
:1026A000FB68581E7B6859680B469B000B449900D9
:1026B0000B44B0FBF3F30133C3F30B03002B0CBF4C
:1026C00001230023DBB2002B01D0012322E07B6831
:1026D0009B68002B0ED1FB68581E7B6859680B461F
:1026E0005B000B44B0FBF3F30133C3F30B0343F480
:1026F00000430FE0FB68581E7B6859680B469B003F
:102700000B4499000B44B0FBF3F30133C3F30B0309
:1027100043F44043796809681343CB617B681B68C5
:102720001B6823F0C0017B68DA697B681B6A1A4367
:102730007B681B680A431A607B681B689B6823F4EC
:10274000034323F0FF037A6811697A68D268114362
:102750007A6812680B4393607B681B68DB6823F020
:10276000FF017B685A697B689B691A437B681B6819
:102770000A43DA607B681B681A687B681B6842F052
:1027800001021A607B6800221A647B68202283F8A9
:102790003D207B6800221A637B68002283F83E207C
:1027A000002318461037BD4680BD00BFA08601003B
:1027B0007F841E00FF083D0083DE1B43D34D621063
:1027C00080B588B002AFF8607A601A460B467B810C
:1027D00013463B81FFF70EFB7861FB6893F83D30B1
:1027E000DBB2202B40F0E0807B69009319230122AB
:1027F0007049F86800F092FA0346002B01D00223DA
:10280000D3E0FB6893F83C30012B01D10223CCE0EC
:10281000FB68012283F83C20FB681B681B6803F0FF
:102820000103012B07D0FB681B681A68FB681B6853
:1028300042F001021A60FB681B681A68FB681B689B
:1028400022F400621A60FB68212283F83D20FB68B5
:10285000102283F83E20FB6800221A64FB687A6825
:102860005A62FB683A895A85FB685B8D9AB2FB68AD
:102870001A85FB68504ADA6279897B693A6AF86896
:1028800000F0CAF90346002B01D001238DE000239C
:102890003B61FB681B685B693B61FB681B689B696C
:1028A0003B613B6966E07A69396AF86800F050FB81
:1028B0000346002B0DD0FB681B6C042B07D1FB6873
:1028C0001B681A68FB681B6842F400721A600123D7
:1028D0006BE0FB685B6A1A78FB681B681A61FB682F
:1028E0005B6A5A1CFB685A62FB685B8D9BB2013BBA
:1028F0009AB2FB685A85FB681B8D013B9AB2FB6854
:102900001A85FB681B685B6903F00403042B1BD169
:10291000FB681B8D002B17D0FB685B6A1A78FB687D
:102920001B681A61FB685B6A5A1CFB685A62FB6889
:102930005B8D9BB2013B9AB2FB685A85FB681B8D8D
:10294000013B9AB2FB681A857A69396AF86800F027
:1029500047FB0346002B0DD0FB681B6C042B07D1F3
:10296000FB681B681A68FB681B6842F400721A60F7
:1029700001231AE0FB681B8D002B94D1FB681B68B8
:102980001A68FB681B6842F400721A60FB68202218
:1029900083F83D20FB68002283F83E20FB6800227C
:1029A00083F83C20002300E0022318461837BD4678
:1029B00080BD00BF020010000000FFFF80B58AB09C
:1029C00002AFF8607A603B600B467B81FFF712FA3A
:1029D000F8610023BB61FB6893F83D30DBB2202B2C
:1029E00040F01181FB690093192301228849F8689E
:1029F00000F094F90346002B01D0022304E1FB68A8
:102A000093F83C30012B01D10223FDE0FB68012249
:102A100083F83C20FB681B681B6803F00103012B53
:102A200007D0FB681B681A68FB681B6842F001024C
:102A30001A60FB681B681A68FB681B6822F4006256
:102A40001A60FB68242283F83D20FB6800221A6488
:102A5000FB68704ADA62FB681B681A68FB681B68CF
:102A600042F480721A60FB6900933B6800224FF0C9
:102A70000111F86800F052F90346002B0DD0FB68F5
:102A80001B681B6803F48073B3F5807F03D1FB6878
:102A90004FF400721A640323B6E07B89DBB21A4656
:102AA000FB681B6802F0FE021A61FFF7A3F9F861E8
:102AB000FB681B685B6903F00203022B0CBF012358
:102AC0000023DBB2FB75FB681B685B6903F4806362
:102AD000B3F5806F0CBF01230023DBB2BB7525E08B
:102AE000FFF788F90246FB69D31A3A689A4202D383
:102AF0003B68002B03D1FB68A02283F83D20FB68D4
:102B00001B685B6903F00203022B0CBF0123002347
:102B1000DBB2FB75FB681B685B6903F48063B3F58C
:102B2000806F0CBF01230023DBB2BB75FB6893F8F9
:102B30003D30DBB2A02B05D0FB7D002B02D1BB7D4D
:102B4000002BCDD0FB68202283F83D20FB681B685A
:102B50005B6903F00203022B29D1FB681B681A682A
:102B6000FB681B6842F400721A6000233B61FB683B
:102B70001B685B693B61FB681B689B693B613B6948
:102B8000FB690093192301222149F86800F0C6F877
:102B90000346002B01D0012336E0FB68202283F896
:102BA0003D20FB68002283F83C2000232CE0FB68DA
:102BB0001B681A68FB681B6842F400721A60FB68A5
:102BC0001B686FF480625A61FB690093192301222C
:102BD0000F49F86800F0A2F80346002B01D001234A
:102BE00012E0BB690133BB61BA697B689A42FFF4AA
:102BF00032AFFB68202283F83D20FB68002283F877
:102C00003C20012300E0022318462037BD4680BD4A
:102C1000020010000000FFFF80B588B002AFF8602E
:102C20007A603B600B467B81FB68DB6A7B617B697A
:102C3000082B06D07B69012B03D07B6913F5803FFD
:102C400008D1FB681B681A68FB681B6842F4807235
:102C50001A600BE0FB681B6B122B07D1FB681B682B
:102C60001A68FB681B6842F480721A603B68009324
:102C70007B6800224FF00111F86800F04FF803461E
:102C8000002B0DD0FB681B681B6803F48073B3F541
:102C9000807F03D1FB684FF400721A64032335E090
:102CA000FB681B69B3F5804F08D17B89DBB21A46FC
:102CB000FB681B6802F0FE021A611BE07B89DB11D6
:102CC000DBB203F00603DBB263F00F03DAB2FB689A
:102CD0001B681A613B687A680E49F86800F098F83A
:102CE0000346002B01D0012310E07B89DAB2FB6898
:102CF0001B681A613B687A680749F86800F088F831
:102D00000346002B01D0012300E0002318461837AA
:102D1000BD4680BD080001000200010080B584B0FE
:102D200000AFF860B9603B601346FB7148E03B6858
:102D3000B3F1FF3F44D0FFF75DF80246BB69D31AF9
:102D40003A689A4202D33B68002B39D1BB681B0C0E
:102D5000DBB2012B0DD1FB681B685B69DA43BB68F2
:102D600013409BB2002B0CBF01230023DBB21A4699
:102D70000CE0FB681B689B69DA43BB6813409BB29D
:102D8000002B0CBF01230023DBB21A46FB799A42C9
:102D900016D1FB6800221A63FB68202283F83D20CD
:102DA000FB68002283F83E20FB681B6C43F0200286
:102DB000FB681A64FB68002283F83C20012323E0AF
:102DC000BB681B0CDBB2012B0DD1FB681B685B6978
:102DD000DA43BB6813409BB2002B0CBF01230023D6
:102DE000DBB21A460CE0FB681B689B69DA43BB68E0
:102DF00013409BB2002B0CBF01230023DBB21A4609
:102E0000FB799A4293D0002318461037BD4680BD07
:102E100080B584B000AFF860B9607A603B6071E063
:102E2000FB681B685B6903F48063B3F5806F23D193
:102E3000FB681B681A68FB681B6842F400721A6022
:102E4000FB681B686FF480625A61FB6800221A639A
:102E5000FB68202283F83D20FB68002283F83E2097
:102E6000FB681B6C43F00402FB681A64FB680022D9
:102E700083F83C20012367E07B68B3F1FF3F41D03A
:102E8000FEF7B8FF02463B68D31A7A689A4202D32B
:102E90007B68002B36D1BB681B0CDBB2012B0CD13D
:102EA000FB681B685B69DA43BB6813409BB2002B6D
:102EB00014BF01230023DBB20BE0FB681B689B6996
:102EC000DA43BB6813409BB2002B14BF01230023DD
:102ED000DBB2002B16D0FB6800221A63FB682022AD
:102EE00083F83D20FB68002283F83E20FB681B6CC2
:102EF00043F02002FB681A64FB68002283F83C2040
:102F0000012321E0BB681B0CDBB2012B0CD1FB6859
:102F10001B685B69DA43BB6813409BB2002B14BF8C
:102F200001230023DBB20BE0FB681B689B69DA43DB
:102F3000BB6813409BB2002B14BF01230023DBB2FC
:102F4000002B7FF46DAF002318461037BD4680BDBF
:102F500080B584B000AFF860B9607A6034E0F8689A
:102F600000F086F80346002B01D0012334E0BB6853
:102F7000B3F1FF3F28D0FEF73DFF02467B68D31A2E
:102F8000BA689A4202D3BB68002B1DD1FB681B684C
:102F90005B6903F08003802B16D0FB6800221A6364
:102FA000FB68202283F83D20FB68002283F83E2046
:102FB000FB681B6C43F02002FB681A64FB6800226C
:102FC00083F83C20012307E0FB681B685B6903F082
:102FD0008003802BC3D1002318461037BD4680BD27
:102FE00080B584B000AFF860B9607A6034E0F8680A
:102FF00000F03EF80346002B01D0012334E0BB680B
:10300000B3F1FF3F28D0FEF7F5FE02467B68D31AE6
:10301000BA689A4202D3BB68002B1DD1FB681B68BB
:103020005B6903F00403042B16D0FB6800221A63CB
:10303000FB68202283F83D20FB68002283F83E20B5
:10304000FB681B6C43F02002FB681A64FB680022DB
:1030500083F83C20012307E0FB681B685B6903F0F1
:103060000403042BC3D1002318461037BD4680BD8E
:1030700080B483B000AF78607B681B685B6903F441
:103080008063B3F5806F1BD17B681B686FF480622F
:103090005A617B6800221A637B68202283F83D20F6
:1030A0007B68002283F83E207B681B6C43F004029F
:1030B0007B681A647B68002283F83C20012300E0CF
:1030C000002318460C37BD4680BC704780B586B0DB
:1030D00000AF78607B68002B01D1012372E27B682E
:1030E0001B6803F00103002B00F08780924B5B68A4
:1030F00003F00C03042B0CD08F4B5B6803F00C0324
:10310000082B12D18C4B5B6803F48033B3F5803FFE
:103110000BD1894B1B6803F40033002B6CD07B6808
:103120005B68002B68D101234CE27B685B68B3F5D8
:10313000803F06D1804B1B687F4A43F48033136085
:103140002EE07B685B68002B0CD17B4B1B687A4AB6
:1031500023F480331360784B1B68774A23F4802371
:1031600013601DE07B685B68B3F5A02F0CD1724B38
:103170001B68714A43F4802313606F4B1B686E4ACF
:1031800043F4803313600BE06B4B1B686A4A23F4F3
:1031900080331360684B1B68674A23F480231360F5
:1031A0007B685B68002B13D0FEF724FE386108E0D3
:1031B000FEF720FE02463B69D31A642B01D9032394
:1031C00000E25D4B1B6803F40033002BF0D014E0E9
:1031D000FEF710FE386108E0FEF70CFE02463B6980
:1031E000D31A642B01D90323ECE1534B1B6803F47E
:1031F0000033002BF0D100E000BF7B681B6803F0B8
:103200000203002B63D04C4B5B6803F00C03002BD4
:103210000BD0494B5B6803F00C03082B1CD1464BC9
:103220005B6803F48033002B16D1434B1B6803F01B
:103230000203002B05D07B681B69012B01D0012301
:10324000C0E13D4B1B6823F0F8027B685B69DB0043
:10325000394913430B603AE07B681B69002B20D08F
:10326000364B01221A60FEF7C5FD386108E0FEF713
:10327000C1FD02463B69D31A022B01D90323A1E108
:103280002D4B1B6803F00203002BF0D02A4B1B6868
:1032900023F0F8027B685B69DB00274913430B606E
:1032A00015E0264B00221A60FEF7A4FD386108E005
:1032B000FEF7A0FD02463B69D31A022B01D9032376
:1032C00080E11D4B1B6803F00203002BF0D17B68EB
:1032D0001B6803F00803002B3AD07B689B69002B26
:1032E00019D0174B01221A60FEF784FD386108E0FF
:1032F000FEF780FD02463B69D31A022B01D9032356
:1033000060E10D4B5B6A03F00203002BF0D001205B
:1033100000F0CEFA1CE00A4B00221A60FEF76AFDAC
:1033200038610FE0FEF766FD02463B69D31A022BB7
:1033300008D9032346E100BF0010024000004242CA
:1033400080044242924B5B6A03F00203002BE9D1F6
:103350007B681B6803F00403002B00F0A6800023A9
:10336000FB758B4BDB6903F08053002B0DD1884B31
:10337000DB69874A43F08053D361854BDB6903F0F7
:103380008053BB60BB680123FB75824B1B6803F451
:103390008073002B18D17F4B1B687E4A43F48073E7
:1033A0001360FEF727FD386108E0FEF723FD0246B3
:1033B0003B69D31A642B01D9032303E1754B1B68C6
:1033C00003F48073002BF0D07B68DB68012B06D1FF
:1033D0006F4B1B6A6E4A43F0010313622DE07B685A
:1033E000DB68002B0CD16A4B1B6A694A23F001038E
:1033F0001362674B1B6A664A23F0040313621CE0E6
:103400007B68DB68052B0CD1614B1B6A604A43F07B
:10341000040313625E4B1B6A5D4A43F001031362AF
:103420000BE05B4B1B6A5A4A23F001031362584BB3
:103430001B6A574A23F0040313627B68DB68002B86
:1034400015D0FEF7D7FC38610AE0FEF7D3FC024640
:103450003B69D31A41F28832934201D90323B1E088
:103460004B4B1B6A03F00203002BEED014E0FEF777
:10347000C1FC38610AE0FEF7BDFC02463B69D31A85
:1034800041F28832934201D903239BE0404B1B6AEF
:1034900003F00203002BEED1FB7D012B05D13C4B49
:1034A000DB693B4A23F08053D3617B68DB69002BE7
:1034B00000F08780364B5B6803F00C03082B61D06B
:1034C0007B68DB69022B46D1334B00221A60FEF782
:1034D00091FC386108E0FEF78DFC02463B69D31A87
:1034E000022B01D903236DE0294B1B6803F0007305
:1034F000002BF0D17B681B6AB3F5803F08D1244BC9
:103500005B6823F400327B689B68214913434B605E
:103510001F4B5B6823F474127B68196A7B685B6AD3
:103520000B431B4913434B601B4B01221A60FEF7F0
:1035300061FC386108E0FEF75DFC02463B69D31A86
:10354000022B01D903233DE0114B1B6803F00073EC
:10355000002BF0D035E0104B00221A60FEF74AFC39
:10356000386108E0FEF746FC02463B69D31A022B9D
:1035700001D9032326E0064B1B6803F00073002BE0
:10358000F0D11EE07B68DB69012B07D1012319E034
:103590000010024000700040600042420B4B5B682C
:1035A000FB60FB6803F480327B681B6A9A4206D199
:1035B000FB6803F470127B685B6A9A4201D00123B6
:1035C00000E0002318461837BD4680BD00100240B9
:1035D00080B584B000AF786039607B68002B01D182
:1035E0000123D0E06A4B1B6803F007033A689A4254
:1035F00010D9674B1B6823F0070265493B681343EA
:103600000B60634B1B6803F007033A689A4201D0D2
:103610000123B8E07B681B6803F00203002B20D075
:103620007B681B6803F00403002B05D0594B5B68D3
:10363000584A43F4E06353607B681B6803F0080357
:10364000002B05D0534B5B68524A43F460535360E0
:10365000504B5B6823F0F0027B689B684D49134335
:103660004B607B681B6803F00103002B40D07B6834
:103670005B68012B07D1474B1B6803F40033002B19
:1036800015D101237FE07B685B68022B07D1414B9A
:103690001B6803F00073002B09D1012373E03D4B3D
:1036A0001B6803F00203002B01D101236BE0394BAF
:1036B0005B6823F003027B685B68364913434B6009
:1036C000FEF798FBF8600AE0FEF794FB0246FB6801
:1036D000D31A41F28832934201D9032353E02D4B90
:1036E0005B6803F00C027B685B689B009A42EBD13D
:1036F000274B1B6803F007033A689A4210D2244B09
:103700001B6823F0070222493B6813430B60204BE0
:103710001B6803F007033A689A4201D0012332E0A4
:103720007B681B6803F00403002B08D0194B5B680F
:1037300023F4E0627B68DB68164913434B607B68C7
:103740001B6803F00803002B09D0124B5B6823F4BD
:1037500060527B681B69DB000E4913434B6000F02D
:1037600021F802460B4B5B681B0903F00F030A4963
:10377000CB5C22FA03F3094A1360094B1B68184615
:10378000FEF7F6FA002318461037BD4680BD00BF8D
:10379000002002400010024068620008080000207B
:1037A0000C00002080B487B000AF0023FB60002332
:1037B000BB6000237B6100237B6000233B611E4BC9
:1037C0005B68FB60FB6803F00C03042B02D0082B42
:1037D00003D027E0194B3B6127E0FB689B0C03F00B
:1037E0000F03174AD35C7B60FB6803F48033002B24
:1037F00010D0114B5B685B0C03F00103114AD35CE2
:10380000BB607B680D4A03FB02F2BB68B2FBF3F3BB
:103810007B6104E07B680C4A02FB03F37B617B69FC
:103820003B6102E0054B3B6100BF3B6918461C371A
:10383000BD4680BC704700BF0010024000127A00F5
:10384000806200089062000800093D0080B400AF6B
:10385000024B1B681846BD4680BC7047080000201C
:1038600080B500AFFFF7F2FF0246054B5B681B0A0D
:1038700003F007030349CB5C22FA03F3184680BD2B
:10388000001002407862000880B500AFFFF7DEFF4D
:103890000246054B5B68DB0A03F007030349CB5C78
:1038A00022FA03F3184680BD001002407862000837
:1038B00080B485B000AF78600A4B1B680A4AA2FB4F
:1038C00003235B0A7A6802FB03F3FB6000BFFB681B
:1038D0005A1EFA60002BF9D100BF00BF1437BD4655
:1038E00080BC704708000020D34D621080B582B0C4
:1038F00000AF78607B68002B01D1012376E07B6804
:103900005B6A002B08D17B685B68B3F5827F09D0C6
:103910007B680022DA6105E07B6800221A617B681F
:1039200000225A617B6800229A627B6893F85130CA
:10393000DBB2002B06D17B68002283F85020786828
:10394000FEF7B0F87B68022283F851207B681B6881
:103950001A687B681B6822F040021A607B685B680B
:1039600003F482727B689B6803F404431A437B6808
:10397000DB6803F400631A437B681B6903F00203EE
:103980001A437B685B6903F001031A437B689B69F8
:1039900003F400731A437B68DB6903F038031A43AE
:1039A0007B681B6A03F0800342EA03017B689B6A21
:1039B00003F400527B681B680A431A607B689B69AA
:1039C0001A0C7B681B6802F004025A607B681B6853
:1039D000DA697B681B6822F40062DA617B68002286
:1039E0005A657B68012283F8512000231846083766
:1039F000BD4680BD80B588B000AFF860B9603B605F
:103A00001346FB800023FB77FB6893F85030012BB3
:103A100001D102232DE1FB68012283F85020FEF73B
:103A2000E9F9B861FB88FB82FB6893F85130DBB29F
:103A3000012B02D00223FB7716E1BB68002B02D0DA
:103A4000FB88002B02D10123FB770DE1FB680322E9
:103A500083F85120FB6800225A65FB68BA681A6334
:103A6000FB68FA889A86FB68FA88DA86FB68002287
:103A70009A63FB6800229A87FB680022DA87FB685A
:103A800000225A64FB6800221A64FB689B68B3F545
:103A9000004F0FD1FB681B681A68FB681B6822F097
:103AA00040021A60FB681B681A68FB681B6842F4D6
:103AB00080421A60FB681B681B6803F04003402BC0
:103AC00007D0FB681B681A68FB681B6842F040025D
:103AD0001A60FB68DB68B3F5006F4FD1FB685B6869
:103AE000002B02D0FB8A012B42D1FB681B6B1A888A
:103AF000FB681B68DA60FB681B6B9A1CFB681A6327
:103B0000FB68DB8E9BB2013B9AB2FB68DA862FE042
:103B1000FB681B689B6803F00203022B12D1FB6851
:103B20001B6B1A88FB681B68DA60FB681B6B9A1CAE
:103B3000FB681A63FB68DB8E9BB2013B9AB2FB68A1
:103B4000DA8615E0FEF756F90246BB69D31A3A68E1
:103B50009A4203D83B68B3F1FF3F02D13B68002B88
:103B600006D10323FB77FB68012283F851207BE019
:103B7000FB68DB8E9BB2002BCAD150E0FB685B6810
:103B8000002B02D0FB8A012B44D1FB681A6BFB6827
:103B90001B680C3312781A70FB681B6B5A1CFB688D
:103BA0001A63FB68DB8E9BB2013B9AB2FB68DA8634
:103BB00030E0FB681B689B6803F00203022B13D103
:103BC000FB681A6BFB681B680C3312781A70FB6871
:103BD0001B6B5A1CFB681A63FB68DB8E9BB2013BB4
:103BE0009AB2FB68DA8615E0FEF704F90246BB6973
:103BF000D31A3A689A4203D83B68B3F1FF3F02D127
:103C00003B68002B06D10323FB77FB68012283F876
:103C1000512029E0FB68DB8E9BB2002BC9D1BA6929
:103C20003968F86800F06EFA0346002B02D0FB6892
:103C300020225A65FB689B68002B0AD100233B6158
:103C4000FB681B68DB683B61FB681B689B683B612A
:103C50003B69FB685B6D002B02D00123FB7703E01F
:103C6000FB68012283F85120FB68002283F8502072
:103C7000FB7F18462037BD4680BD80B58CB000AFB5
:103C8000F860B9607A607B800123FB62002387F8CB
:103C90002B30FB6893F85030012B01D1022398E1BF
:103CA000FB68012283F85020FEF7A4F87862FB68D5
:103CB00093F8513087F82330FB685B68FB617B88A1
:103CC0007B8397F82330012B0FD0FB69B3F5827FFC
:103CD00007D1FB689B68002B03D197F82330042B96
:103CE00003D0022387F82B306DE1BB68002B05D091
:103CF0007B68002B02D07B88002B03D1012387F83F
:103D00002B3060E1FB6893F85130DBB2042B03D019
:103D1000FB68052283F85120FB6800225A65FB6886
:103D20007A689A63FB687A88DA87FB687A889A8768
:103D3000FB68BA681A63FB687A88DA86FB687A8857
:103D40009A86FB6800221A64FB6800225A64FB68AA
:103D50001B681B6803F04003402B07D0FB681B68FF
:103D60001A68FB681B6842F040021A60FB68DB6857
:103D7000B3F5006F7CD1FB685B68002B02D07B8BB6
:103D8000012B6AD1FB681B6B1A88FB681B68DA6021
:103D9000FB681B6B9A1CFB681A63FB68DB8E9BB28B
:103DA000013B9AB2FB68DA8657E0FB681B689B68A8
:103DB00003F00203022B1BD1FB68DB8E9BB2002BAE
:103DC00016D0FB6A012B13D1FB681B6B1A88FB68AA
:103DD0001B68DA60FB681B6B9A1CFB681A63FB6844
:103DE000DB8E9BB2013B9AB2FB68DA860023FB6252
:103DF000FB681B689B6803F00103012B19D1FB686A
:103E0000DB8F9BB2002B14D0FB681B68DA68FB6861
:103E10009B6B92B21A80FB689B6B9A1CFB689A633F
:103E2000FB68DB8F9BB2013B9AB2FB68DA87012308
:103E3000FB62FDF7DFFF02467B6AD31ABA6B9A4238
:103E40000BD8BB6BB3F1FF3F07D0032387F82B30B0
:103E5000FB68012283F85120B5E0FB68DB8E9BB242
:103E6000002BA2D1FB68DB8F9BB2002B9DD180E0A1
:103E7000FB685B68002B02D07B8B012B6FD1FB684A
:103E80001A6BFB681B680C3312781A70FB681B6B8B
:103E90005A1CFB681A63FB68DB8E9BB2013B9AB22B
:103EA000FB68DA865BE0FB681B689B6803F0020333
:103EB000022B1CD1FB68DB8E9BB2002B17D0FB6A58
:103EC000012B14D1FB681A6BFB681B680C3312784A
:103ED0001A70FB681B6B5A1CFB681A63FB68DB8E4D
:103EE0009BB2013B9AB2FB68DA860023FB62FB6857
:103EF0001B689B6803F00103012B19D1FB68DB8F62
:103F00009BB2002B14D0FB681B68DA68FB689B6BC4
:103F1000D2B21A70FB689B6B5A1CFB689A63FB68F1
:103F2000DB8F9BB2013B9AB2FB68DA870123FB620D
:103F3000FDF760FF02467B6AD31ABA6B9A4203D838
:103F4000BB6BB3F1FF3F02D1BB6B002B07D1032347
:103F500087F82B30FB68012283F8512033E0FB689F
:103F6000DB8E9BB2002B9ED1FB68DB8F9BB2002BBC
:103F700099D17A6AB96BF86800F0C4F80346002B4F
:103F800006D0012387F82B30FB6820225A651AE0FF
:103F9000FB689B68002B0AD100237B61FB681B68D0
:103FA000DB687B61FB681B689B687B617B69FB68E6
:103FB0005B6D002B03D0012387F82B3003E0FB68F7
:103FC000012283F85120FB68002283F8502097F8E3
:103FD0002B3018463037BD4680BD80B483B000AF6B
:103FE00078607B6893F85130DBB218460C37BD46D9
:103FF00080BC704780B588B000AFF860B9603B60A6
:104000001346FB71FDF7F6FE0246BB6A9B1A3A683F
:104010001344FB61FDF7EEFEB861394B1B685B0191
:104020001B0DFA6902FB03F37B6154E03B68B3F1BB
:10403000FF3F50D0FDF7DEFE0246BB69D31AFA6996
:104040009A4202D9FB69002B3DD1FB681B685A6874
:10405000FB681B6822F0E0025A60FB685B68B3F5FE
:10406000827F11D1FB689B68B3F5004F04D0FB68D9
:104070009B68B3F5806F07D1FB681B681A68FB6803
:104080001B6822F040021A60FB689B6AB3F5005F70
:104090000FD1FB681B681A68FB681B6822F400528A
:1040A0001A60FB681B681A68FB681B6842F40052C0
:1040B0001A60FB68012283F85120FB68002283F814
:1040C0005020032317E07B69002B01D10023FB6103
:1040D0007B69013B7B61FB681B689A68BB68134086
:1040E000BA689A420CBF01230023DBB21A46FB795F
:1040F0009A429BD1002318462037BD4680BD00BFA1
:104100000800002080B586B002AFF860B9607A6020
:104110007B680093BB6800228021F868FFF76AFF84
:104120000346002B07D0FB685B6D43F02002FB6861
:104130005A65032300E0002318461037BD4680BDB2
:1041400080B582B000AF78607B68002B01D101237D
:1041500041E07B6893F83D30DBB2002B06D17B68F1
:10416000002283F83C207868FDF7E6FC7B68022299
:1041700083F83D207B681A687B6804331946104633
:1041800000F040F97B68012283F846207B68012219
:1041900083F83E207B68012283F83F207B68012260
:1041A00083F840207B68012283F841207B6801224C
:1041B00083F842207B68012283F843207B68012238
:1041C00083F844207B68012283F845207B68012224
:1041D00083F83D20002318460837BD4680BD000007
:1041E00080B485B000AF78607B6893F83D30DBB277
:1041F000012B01D0012332E07B68022283F83D20AD
:104200007B681B68184A93420ED07B681B68B3F129
:10421000804F09D07B681B68144A934204D07B68A6
:104220001B68134A934211D17B681B689B6803F09B
:104230000703FB60FB68062B10D07B681B681A68BD
:104240007B681B6842F001021A6007E07B681B680C
:104250001A687B681B6842F001021A600023184646
:104260001437BD4680BC7047002C0140000400405C
:104270000008004080B584B000AF7860396000234A
:10428000FB737B6893F83C30012B01D10223B4E02F
:104290007B68012283F83C207B68022283F83D2062
:1042A0007B681B689B68BB60BB6823F07703BB60BF
:1042B000BB6823F47F43BB607B681B68BA689A6065
:1042C0003B681B68B3F5005F3ED0B3F5005F00F2BA
:1042D0008780B3F5805F00F08680B3F5805F7FD87C
:1042E000702B1AD0702B7BD8602B50D0602B77D8D6
:1042F000502B3CD0502B73D8402B58D0402B6FD82C
:10430000302B64D0302B6BD8202B60D0202B67D87B
:10431000002B5CD0102B5AD062E07B6818683B6899
:1043200099683B685A683B68DB6800F044F97B6831
:104330001B689B68BB60BB6843F07703BB607B680E
:104340001B68BA689A604FE07B6818683B68996898
:104350003B685A683B68DB6800F02DF97B681B6896
:104360009A687B681B6842F480429A603CE07B68F4
:1043700018683B6859683B68DB681A4600F0A4F887
:104380007B681B685021184600F0FBF82CE07B6826
:1043900018683B6859683B68DB681A4600F0C2F849
:1043A0007B681B686021184600F0EBF81CE07B6816
:1043B00018683B6859683B68DB681A4600F084F867
:1043C0007B681B684021184600F0DBF80CE07B6836
:1043D0001A683B681B681946104600F0D2F803E0E3
:1043E0000123FB7300E000BF7B68012283F83D20BE
:1043F0007B68002283F83C20FB7B18461037BD46C3
:1044000080BD000080B485B000AF786039607B6803
:104410001B68FB607B68294A93420BD07B68B3F131
:10442000804F07D07B68264A934203D07B68254A99
:10443000934208D1FB6823F07003FB603B685B6824
:10444000FA681343FB607B681C4A93420BD07B687D
:10445000B3F1804F07D07B68194A934203D07B6841
:10446000184A934208D1FB6823F44073FB603B6811
:10447000DB68FA681343FB60FB6823F080023B684B
:104480005B691343FB607B68FA681A603B689A6853
:104490007B68DA623B681A687B689A627B68074AC5
:1044A000934203D13B681A697B681A637B680122D7
:1044B0005A6100BF1437BD4680BC7047002C0140D4
:1044C000000400400008004080B487B000AFF860EE
:1044D000B9607A60FB681B6A7B61FB681B6A23F02A
:1044E0000102FB681A62FB689B693B613B6923F030
:1044F000F0033B617B681B013A6913433B617B69B5
:1045000023F00A037B617A69BB6813437B61FB6814
:104510003A699A61FB687A691A6200BF1C37BD4626
:1045200080BC704780B487B000AFF860B9607A6033
:10453000FB681B6A7B61FB681B6A23F01002FB6847
:104540001A62FB689B693B613B6923F470433B61E2
:104550007B681B033A6913433B617B6923F0A0032B
:104560007B61BB681B017A6913437B61FB683A6915
:104570009A61FB687A691A6200BF1C37BD4680BC2D
:10458000704780B485B000AF786039607B689B6805
:10459000FB60FB6823F07003FB603A68FB68134321
:1045A00043F00703FB607B68FA689A6000BF14372A
:1045B000BD4680BC704780B487B000AFF860B9607A
:1045C0007A603B60FB689B687B617B6923F47F4377
:1045D0007B613B681A027B681A43BB6813437A69A4
:1045E00013437B61FB687A699A6000BF1C37BD4644
:1045F00080BC704780B485B000AF786039607B685C
:1046000093F83C30012B01D1022346E07B68012264
:1046100083F83C207B68022283F83D207B681B687E
:104620005B68FB607B681B689B68BB60FB6823F072
:104630007003FB603B681B68FA681343FB607B6890
:104640001B68FA685A607B681B68164A93420ED052
:104650007B681B68B3F1804F09D07B681B68124AE6
:10466000934204D07B681B68104A93420CD1BB680C
:1046700023F08003BB603B685B68BA681343BB6090
:104680007B681B68BA689A607B68012283F83D20CA
:104690007B68002283F83C20002318461437BD466F
:1046A00080BC7047002C014000040040000800401E
:1046B00080B582B000AF78607B68002B01D1012308
:1046C00042E07B6893F84130DBB2002B06D17B6877
:1046D000002283F840207868FDF74CFA7B6824229A
:1046E00083F841207B681B68DA687B681B6822F4CA
:1046F0000052DA60786800F07FFC7B681B681A69FA
:104700007B681B6822F490421A617B681B685A69B7
:104710007B681B6822F02A025A617B681B68DA6892
:104720007B681B6842F40052DA607B6800225A649E
:104730007B68202283F841207B68202283F8422076
:104740007B6800225A63002318460837BD4680BDA7
:1047500080B5BAB000AF78607B681B681B68C7F88B
:10476000E4307B681B68DB68C7F8E0307B681B6857
:104770005B69C7F8DC300023C7F8D8300023C7F8DE
:10478000D430D7F8E43003F00F03C7F8D830D7F8A7
:10479000D830002B0FD1D7F8E43003F02003002BE2
:1047A00009D0D7F8E03003F02003002B03D078685D
:1047B00000F063FB5BE2D7F8D830002B00F0DE801E
:1047C000D7F8DC3003F00103002B06D1D7F8E03036
:1047D00003F49073002B00F0D180D7F8E43003F09D
:1047E0000103002B0BD0D7F8E03003F48073002BCB
:1047F00005D07B685B6C43F001027B685A64D7F894
:10480000E43003F00403002B0BD0D7F8DC3003F0C6
:104810000103002B05D07B685B6C43F002027B68D0
:104820005A64D7F8E43003F00203002B0BD0D7F81A
:10483000DC3003F00103002B05D07B685B6C43F098
:1048400004027B685A64D7F8E43003F00803002BB5
:1048500011D0D7F8E03003F02003002B05D1D7F8B2
:10486000DC3003F00103002B05D07B685B6C43F068
:1048700008027B685A647B685B6C002B00F0F28155
:10488000D7F8E43003F02003002B08D0D7F8E0304D
:1048900003F02003002B02D0786800F0EEFA7B686A
:1048A0001B685B6903F04003002B14BF0123002346
:1048B000DBB2C7F8D4307B685B6C03F00803002BD5
:1048C00003D1D7F8D430002B4FD0786800F0F8F936
:1048D0007B681B685B6903F04003002B41D07B6859
:1048E0001B681433C7F89C30D7F89C3053E8003F5E
:1048F000C7F89830D7F8983023F04003C7F8D03085
:104900007B681B681433D7F8D020C7F8A820C7F8F5
:10491000A430D7F8A410D7F8A82041E80023C7F89E
:10492000A030D7F8A030002BD9D17B68DB6B002BEF
:1049300013D07B68DB6B7E4A5A637B68DB6B18465F
:10494000FDF7CEFB0346002B16D07B68DB6B5B6B61
:104950007A68D26B104698470EE0786800F09CF9B0
:104960000AE0786800F098F906E0786800F094F9B9
:104970007B6800225A6475E100BF73E17B681B6BA2
:10498000012B40F04F81D7F8E43003F01003002BE7
:1049900000F04881D7F8E03003F01003002B00F05E
:1049A00041810023BB607B681B681B68BB607B6820
:1049B0001B685B68BB60BB687B681B685B6903F056
:1049C0004003002B00F0B6807B68DB6B1B685B68E4
:1049D000A7F8BE30B7F8BE30002B00F045817B68E9
:1049E0009B8DB7F8BE209A4280F03E817B68B7F875
:1049F000BE20DA857B68DB6B9B69202B00F088800A
:104A00007B681B680C33C7F88830D7F8883053E8C8
:104A1000003FC7F88430D7F8843023F48073C7F898
:104A2000B8307B681B680C33D7F8B820C7F89420DF
:104A3000C7F89030D7F89010D7F8942041E80023B9
:104A4000C7F88C30D7F88C30002BD9D17B681B6825
:104A500014337B677B6F53E8003F3B673B6F23F06A
:104A60000103C7F8B4307B681B681433D7F8B4204F
:104A7000C7F88020FB67F96FD7F8802041E8002352
:104A8000BB67BB6F002BE1D17B681B6814333B66AF
:104A90003B6E53E8003FFB65FB6D23F04003C7F816
:104AA000B0307B681B681433D7F8B020FA66BB6659
:104AB000B96EFA6E41E800237B667B6E002BE3D172
:104AC0007B68202283F842207B6800221A637B687F
:104AD0001B680C33FB64FB6C53E8003FBB64BB6C8E
:104AE00023F01003C7F8AC307B681B680C33D7F891
:104AF000AC20BA657B65796DBA6D41E800233B65F2
:104B00003B6D002BE3D17B68DB6B1846FDF7ADFAFC
:104B10007B6802225A637B689A8D7B68DB8D9BB22F
:104B2000D31A9BB21946786800F0BFF89CE000BF2A
:104B3000854D00087B689A8D7B68DB8D9BB2D31A0C
:104B4000A7F8CE307B68DB8D9BB2002B00F08E8007
:104B5000B7F8CE30002B00F089807B681B680C33DF
:104B6000BB63BB6B53E8003F7B637B6B23F49073A9
:104B7000C7F8C8307B681B680C33D7F8C8207A6444
:104B80003B64396C7A6C41E80023FB63FB6B002BC0
:104B9000E3D17B681B6814337B627B6A53E8003F78
:104BA0003B623B6A23F00103C7F8C4307B681B6893
:104BB0001433D7F8C4203A63FB62F96A3A6B41E8D0
:104BC0000023BB62BB6A002BE3D17B68202283F801
:104BD00042207B6800221A637B681B680C333B61B0
:104BE0003B6953E8003FFB60FB6823F01003C7F804
:104BF000C0307B681B680C33D7F8C020FA61BB61FA
:104C0000B969FA6941E800237B617B69002BE3D134
:104C10007B6802225A63B7F8CE301946786800F0F4
:104C200044F823E0D7F8E43003F08003002B09D0E8
:104C3000D7F8E03003F08003002B03D0786800F051
:104C4000B5F814E0D7F8E43003F04003002B0ED0A1
:104C5000D7F8E03003F04003002B08D0786800F06C
:104C6000F4F804E000BF02E000BF00E000BFE83756
:104C7000BD4680BD80B483B000AF786000BF0C3704
:104C8000BD4680BC704780B483B000AF786000BF81
:104C90000C37BD4680BC704780B483B000AF7860ED
:104CA00000BF0C37BD4680BC704780B483B000AFF6
:104CB00078600B467B8000BF0C37BD4680BC7047D8
:104CC00080B495B000AF78607B681B680C337B6361
:104CD0007B6B53E8003F3B633B6B23F49073FB64B7
:104CE0007B681B680C33FA6C3A64FB63F96B3A6CB3
:104CF00041E80023BB63BB6B002BE5D17B681B68DD
:104D000014333B623B6A53E8003FFB61FB6923F0CD
:104D10000103BB647B681B681433BA6CFA62BB6224
:104D2000B96AFA6A41E800237B627B6A002BE5D10D
:104D30007B681B6B012B19D17B681B680C33FB60F4
:104D4000FB6853E8003FBB60BB6823F010037B6443
:104D50007B681B680C337A6CBA617B617969BA69CC
:104D600041E800233B613B69002BE5D17B682022B1
:104D700083F842207B6800221A6300BF5437BD4687
:104D800080BC704780B584B000AF78607B685B6A98
:104D9000FB60FB680022DA85FB680022DA84F86891
:104DA000FFF77AFF00BF1037BD4680BD80B485B0E5
:104DB00000AF78607B6893F84130DBB2212B3ED1A5
:104DC0007B689B68B3F5805F14D17B681B69002BFF
:104DD00010D17B681B6AFB60FB681B881A467B68E6
:104DE0001B68C2F308025A607B681B6A9A1C7B68C6
:104DF0001A6208E07B681B6A591C7A6811621A788B
:104E00007B681B685A607B68DB8C9BB2013B9BB262
:104E10007A681946D184002B0FD17B681B68DA6849
:104E20007B681B6822F08002DA607B681B68DA68A6
:104E30007B681B6842F04002DA60002300E0022336
:104E400018461437BD4680BC704780B582B000AFAD
:104E500078607B681B68DA687B681B6822F0400218
:104E6000DA607B68202283F841207868FFF702FF30
:104E7000002318460837BD4680BD80B58CB000AF12
:104E800078607B6893F84230DBB2222B40F0AE8032
:104E90007B689B68B3F5805F17D17B681B69002B2B
:104EA00013D10023FB627B689B6ABB627B681B6833
:104EB0005B689BB2C3F308039AB2BB6A1A807B6833
:104EC0009B6A9A1C7B689A6226E07B689B6AFB62FD
:104ED0000023BB627B689B68B3F5805F07D07B686B
:104EE0009B68002B0AD17B681B69002B06D17B686D
:104EF0001B685B68DAB2FB6A1A7008E07B681B68A3
:104F00005B68DBB203F07F03DAB2FB6A1A707B687E
:104F10009B6A5A1C7B689A627B68DB8D9BB2013B63
:104F20009BB27A681946D185002B5DD17B681B68DE
:104F3000DA687B681B6822F02002DA607B681B68F5
:104F4000DA687B681B6822F48072DA607B681B6811
:104F50005A697B681B6822F001025A617B68202233
:104F600083F842207B6800225A637B681B6B012B0D
:104F700035D17B6800221A637B681B680C337B6128
:104F80007B6953E8003F3B613B6923F010037B6280
:104F90007B681B680C337A6A3A62FB61F9693A6A8A
:104FA00041E80023BB61BB69002BE5D17B681B682E
:104FB0001B6803F01003102B0AD10023FB607B68F1
:104FC0001B681B68FB607B681B685B68FB60FB6899
:104FD0007B689B8D19467868FFF767FE02E078686A
:104FE000FFF751FE002302E0002300E002231846F1
:104FF0003037BD4680BD000080B584B000AF78601A
:105000007B681B681B6923F440517B68DA687B6806
:105010001B680A431A617B689A687B681B691A439C
:105020007B685B691343BB607B681B68DB6823F4A8
:10503000B05323F00C037A681268B9680B43D3604D
:105040007B681B685B6923F440717B689A697B68A5
:105050001B680A435A617B681B682C4A934203D140
:10506000FEF712FCF86002E0FEF7FAFBF860FA685F
:1050700013469B0013449A001A447B685B689B00AC
:10508000B2FBF3F3224AA2FB03235B091901FA687E
:1050900013469B0013449A001A447B685B689B008C
:1050A000B2FBF3F21A4BA3FB02035B09642000FB83
:1050B00003F3D31A1B013233154AA2FB03235B0906
:1050C00003F0F0031944FA6813469B0013449A0056
:1050D0001A447B685B689B00B2FBF3F20C4BA3FBAA
:1050E00002035B09642000FB03F3D31A1B01323374
:1050F000074AA2FB03235B0903F00F027B681B68CE
:105100000A449A6000BF1037BD4680BD0038014098
:105110001F85EB510EB46FF0004100B59CB01DAB84
:1051200002900690079104910848094953F8042B0E
:105130000591006802A9019300F09CF90022029BEE
:105140001A701CB05DF804EB03B0704760000020DB
:105150000802FFFF03460244934200D1704703F860
:10516000011BF9E7014B1868704700BF6000002081
:1051700070B500260C4D0D4C641BA410A64209D13D
:1051800000F07AFC00260A4D0A4C641BA410A642CB
:1051900005D170BD55F8043B98470136EEE755F848
:1051A000043B98470136F2E7D0620008D06200085D
:1051B000D0620008D4620008704770470A449142E8
:1051C00000F1FF3300D1704710B511F8014B914247
:1051D00003F8014FF9D110BD38B50546002940D07C
:1051E00051F8043C0C1F002BB8BFE41800F0DCF8A9
:1051F0001C4A136833B9636014602846BDE8384020
:1052000000F0D8B8A34208D9206821188B4201BF0A
:1052100019685B6809182160EDE71A465B680BB1F5
:10522000A342FAD911685018A0420BD1206801445A
:10523000501883421160E0D118685B680844106020
:105240005360DAE702D90C232B60D6E720682118D7
:105250008B4201BF19685B68091821606360546064
:10526000CBE738BD7808002070B50E4E0C4631688B
:10527000054611B900F0AAFB30602146284600F02F
:10528000A5FB431C0AD0C41C24F00304A04207D091
:10529000211A284600F09AFB013001D14FF0FF346B
:1052A000204670BD7C0800202DE9F843CD1C25F078
:1052B000030508350C2D38BF0C25002D074601DBF2
:1052C000A94205D90C2300263B603046BDE8F8838F
:1052D000DFF8D08000F068F8D8F800301C465CBBDE
:1052E00029463846FFF7C0FF431C044655D1D8F87D
:1052F00000402646002E45D1002C48D02368314678
:10530000384604EB030900F061FB81453FD1216879
:1053100038466D1A2946FFF7A7FF013037D02368BA
:105320002B442360D8F80030002B38D05A68A242B2
:105330002BD100225A600FE02268521B1FD40B2A87
:1053400017D96119A342256018BF5960636808BF67
:10535000C8F8001062514B60384604F10B0600F0AB
:1053600029F826F00706231DF21AAED09B1BA35086
:10537000ABE7A3426268DDD1C8F80020ECE7234622
:105380006468ACE734467668B4E71346CCE70C2390
:1053900038463B6000F00EF897E72560DCE75B607D
:1053A000FFDE00BF780800200148FFF705BF00BFFF
:1053B000740800200148FFF700BF00BF74080020F8
:1053C0002DE9F0471F468E688246BE420C46904645
:1053D0000B682CD88A8912F4906F26D06569096908
:1053E00005EB4505A3EB010905EBD5757B1C4B448B
:1053F0006D109D4238BF1D46530527D52946FFF73E
:1054000053FF064660B34A462169FFF7D7FEA389DA
:1054100023F4906343F08003A38126614E44266009
:105420003E466561A5EB0905A560BE4200D93E4632
:1054300032464146206800F0AFFA0020A3689B1B6B
:10544000A360236833442360BDE8F0872A4600F058
:10545000DBFA06460028E0D150462169FFF7BCFE82
:105460000C23CAF80030A3894FF0FF3043F040030B
:10547000A381E9E72DE9F04F98468B8907461B0683
:105480000D4614469DB00ED50B6963B94021FFF758
:105490000BFF2860286120B90C233B604FF0FF30E0
:1054A000D0E040236B610023099320238DF829303D
:1054B00030234FF00109CDF80C80DFF8A0818DF882
:1054C0002A3023469A4613F8012B0AB1252AF9D12E
:1054D000BAEB040B0BD05B46224629463846FFF751
:1054E0006FFF013000F0A980099A5A4409929AF896
:1054F0000030002B00F0A18000234FF0FF32CDE9F7
:1055000005230AF1010A049307938DF853301A9387
:105510005446052214F8011B504800F067FA049A1B
:10552000D8B9D00644BF20238DF85330110744BFAB
:105530002B238DF853309AF800302A2B15D054467F
:1055400000204FF00A0C079A214611F8013B303B2E
:10555000092B4DD9B0B1079214E0A0EB080309FA6A
:1055600003F31343A2460493D2E7039B191D1B6860
:105570000391002BBBBF5B4242F0020207930793EB
:10558000B8BF049223782E2B0CD163782A2B34D108
:10559000039B02341A1D1B680392002BB8BF4FF007
:1055A000FF330593DFF8B8A003225046217800F0BE
:1055B0001DFA38B14022049BA0EB0A00824013433D
:1055C0000134049314F8011B062226488DF8281094
:1055D00000F00CFA002838D0234B1BBB039B073389
:1055E00023F0070308330393099B3344099368E7C7
:1055F0000C4601200CFB0232A6E700234FF00A0CF8
:10560000194601340593204610F8012B303A092A37
:1056100003D9002BC6D00591C4E7044601230CFB37
:105620000121F0E703AB00932A4638460F4B04A94B
:10563000AFF30080421C0646D6D1AB895B063FF52E
:105640002DAF09981DB0BDE8F08F03AB00932A463B
:105650003846064B04A900F07DF8EBE7926200089B
:10566000986200089C62000800000000C153000816
:105670002DE9F047164699468A680B69074693421A
:10568000B8BF1346336091F843200C46DDF8208004
:105690000AB1013333602368990642BF336802338D
:1056A0003360256815F0060506D104F1190AE36890
:1056B00032689B1AAB422BDC94F84320131E2268FD
:1056C00018BF0123920630D44946384604F14302FC
:1056D000C047013023D02368226903F00603042B5E
:1056E00014BF002533684FF0000608BFE56804F1D9
:1056F0001A0408BFED1A54F8123C08BF25EAE575F4
:105700009342C4BF9B1AED18B5421AD1002008E09D
:105710000123524649463846C047013003D14FF075
:10572000FF30BDE8F0870135C1E73020E11881F88E
:1057300043005A1C94F845102244023382F8431067
:10574000C2E70123224649463846C0470130E6D029
:105750000136D9E72DE9FF470F7E9146782F804625
:105760000C469A460C9D01F1430207D8622F0AD8D5
:10577000002F00F0D580582F00F0C18004F14205C1
:1057800084F842703AE0A7F16303152BF6D801A123
:1057900051F823F0ED570008015800087D57000824
:1057A0007D5700087D5700087D5700080158000804
:1057B0007D5700087D5700087D5700087D57000879
:1057C000075900082D580008C15800087D570008E7
:1057D0007D570008295900087D5700082D580008FA
:1057E0007D5700087D570008C95800082B681A1D0E
:1057F0001B682A6004F1420584F842300123A0E0CE
:1058000020682B68070603F10401296001D51E6892
:1058100003E04606FBD5B3F90060002E03DA2D2322
:10582000764284F843300A23594812E02B682068F6
:10583000191D2960050601D51E6802E04106FBD549
:105840001E886F2F0CBF08230A235148002184F8BB
:1058500043106568002DA8BF2168A560A4BF21F092
:10586000040121600EB9002D4BD01546B6FBF3F1B3
:1058700003FB1167C75D05F8017D3746BB420E4645
:10588000F4D9082B0BD12368DE0708D5236961689A
:105890009942DEBF302305F8013C05F1FF35521B6C
:1058A00022614B4621464046CDF800A003AAFFF7EF
:1058B000DFFE01304AD14FF0FF3004B0BDE8F08781
:1058C000236843F0200323607827324884F845702A
:1058D000236829681F0651F8046B02D45F0648BF8D
:1058E000B6B2DF0748BF43F02003296048BF2360FA
:1058F0001EB9236823F0200323601023A6E7244861
:10590000E4E71546BDE72B682668181D6169286025
:1059100035061B6801D5196002E07006FBD51980B9
:10592000002315462361BCE72B6800211A1D2A605D
:105930001D686268284600F059F808B1401B606095
:1059400063682361002384F84330AAE72A46494666
:1059500040462369D0470130ADD023689B0713D45C
:10596000E068039B9842B8BF1846A6E70123324679
:1059700049464046D04701309DD00135E368039940
:105980005B1AAB42F2DCEBE7002504F11906F5E700
:10599000A3620008B4620008884210B501EB02045B
:1059A00002D98442234607D8431EA14208D011F8E9
:1059B000012B03F8012FF8E7014602448A4200D187
:1059C00010BD13F8014D02F8014DF7E738B500237B
:1059D000054D044608462B60FCF752F9431C02D1E2
:1059E0002B6803B1236038BD70080020034610B552
:1059F000C9B202449342184601D1002003E0047862
:105A000001338C42F6D110BD2DE9F0418046144699
:105A10000E4621B91146BDE8F041FFF745BC2AB951
:105A2000FFF7DAFB25462846BDE8F08100F01BF8B9
:105A30008442074602D8B4EB500F12D821464046A4
:105A4000FFF732FC05460028EDD0BC422246314625
:105A500028BF3A46FFF7B2FB31464046FFF7BCFB92
:105A6000E1E73546DFE751F8043C181F002BBCBFC7
:105A70000B58C01870470000F8B500BFF8BC08BC50
:105A80009E467047F8B500BFF8BC08BC9E467047FC
:105A9000466C616D652056616C75653A2025640021
:105AA0004D51322056616C75653A20256400000026
:105AB00048756D693A2025640000000054656D70DA
:105AC0003A20256400000000474153005361666599
:105AD000000000004669726500000000FFFCF9F656
